{
  "contractName": "Fliff",
  "abi": [
    {
      "constant": true,
      "inputs": [
        {
          "name": "",
          "type": "address"
        }
      ],
      "name": "globalBalance",
      "outputs": [
        {
          "name": "",
          "type": "int256"
        }
      ],
      "payable": false,
      "stateMutability": "view",
      "type": "function"
    },
    {
      "constant": true,
      "inputs": [],
      "name": "stableCoin",
      "outputs": [
        {
          "name": "",
          "type": "address"
        }
      ],
      "payable": false,
      "stateMutability": "view",
      "type": "function"
    },
    {
      "inputs": [
        {
          "name": "_stableCoin",
          "type": "address"
        }
      ],
      "payable": false,
      "stateMutability": "nonpayable",
      "type": "constructor"
    },
    {
      "anonymous": false,
      "inputs": [
        {
          "indexed": true,
          "name": "_debtor",
          "type": "address"
        },
        {
          "indexed": true,
          "name": "_debtee",
          "type": "address"
        },
        {
          "indexed": false,
          "name": "_amount",
          "type": "int256"
        }
      ],
      "name": "DebtAdded",
      "type": "event"
    },
    {
      "anonymous": false,
      "inputs": [
        {
          "indexed": true,
          "name": "_debtor",
          "type": "address"
        },
        {
          "indexed": true,
          "name": "_debtee",
          "type": "address"
        },
        {
          "indexed": false,
          "name": "_amount",
          "type": "int256"
        }
      ],
      "name": "DebtSettled",
      "type": "event"
    },
    {
      "constant": false,
      "inputs": [
        {
          "name": "amount",
          "type": "int256"
        },
        {
          "name": "recipient",
          "type": "address"
        }
      ],
      "name": "recordDebt",
      "outputs": [],
      "payable": false,
      "stateMutability": "nonpayable",
      "type": "function"
    },
    {
      "constant": true,
      "inputs": [
        {
          "name": "person",
          "type": "address"
        }
      ],
      "name": "getGlobalBalance",
      "outputs": [
        {
          "name": "",
          "type": "int256"
        }
      ],
      "payable": false,
      "stateMutability": "view",
      "type": "function"
    },
    {
      "constant": false,
      "inputs": [
        {
          "name": "amount",
          "type": "int256"
        },
        {
          "name": "recipient",
          "type": "address"
        }
      ],
      "name": "debtSettled",
      "outputs": [],
      "payable": false,
      "stateMutability": "nonpayable",
      "type": "function"
    }
  ],
  "bytecode": "0x608060405234801561001057600080fd5b506040516020806108518339810180604052602081101561003057600080fd5b810190808051906020019092919050505080600160006101000a81548173ffffffffffffffffffffffffffffffffffffffff021916908373ffffffffffffffffffffffffffffffffffffffff160217905550506107bf806100926000396000f3fe608060405234801561001057600080fd5b50600436106100575760003560e01c8063371716941461005c5780636c7d83cf146100aa578063916a560614610102578063992642e51461015a578063d672f077146101a4575b600080fd5b6100a86004803603604081101561007257600080fd5b8101908080359060200190929190803573ffffffffffffffffffffffffffffffffffffffff1690602001909291905050506101f2565b005b6100ec600480360360208110156100c057600080fd5b81019080803573ffffffffffffffffffffffffffffffffffffffff1690602001909291905050506104f3565b6040518082815260200191505060405180910390f35b6101446004803603602081101561011857600080fd5b81019080803573ffffffffffffffffffffffffffffffffffffffff16906020019092919050505061053b565b6040518082815260200191505060405180910390f35b610162610553565b604051808273ffffffffffffffffffffffffffffffffffffffff1673ffffffffffffffffffffffffffffffffffffffff16815260200191505060405180910390f35b6101f0600480360360408110156101ba57600080fd5b8101908080359060200190929190803573ffffffffffffffffffffffffffffffffffffffff169060200190929190505050610579565b005b6000600160009054906101000a900473ffffffffffffffffffffffffffffffffffffffff1673ffffffffffffffffffffffffffffffffffffffff1663dd62ed3e33306040518363ffffffff1660e01b8152600401808373ffffffffffffffffffffffffffffffffffffffff1673ffffffffffffffffffffffffffffffffffffffff1681526020018273ffffffffffffffffffffffffffffffffffffffff1673ffffffffffffffffffffffffffffffffffffffff1681526020019250505060206040518083038186803b1580156102c757600080fd5b505afa1580156102db573d6000803e3d6000fd5b505050506040513d60208110156102f157600080fd5b8101908080519060200190929190505050905060008382019050600160009054906101000a900473ffffffffffffffffffffffffffffffffffffffff1673ffffffffffffffffffffffffffffffffffffffff1663095ea7b330836040518363ffffffff1660e01b8152600401808373ffffffffffffffffffffffffffffffffffffffff1673ffffffffffffffffffffffffffffffffffffffff16815260200182815260200192505050602060405180830381600087803b1580156103b457600080fd5b505af11580156103c8573d6000803e3d6000fd5b505050506040513d60208110156103de57600080fd5b810190808051906020019092919050505050836000803373ffffffffffffffffffffffffffffffffffffffff1673ffffffffffffffffffffffffffffffffffffffff16815260200190815260200160002060008282540392505081905550836000808573ffffffffffffffffffffffffffffffffffffffff1673ffffffffffffffffffffffffffffffffffffffff168152602001908152602001600020600082825401925050819055508273ffffffffffffffffffffffffffffffffffffffff163373ffffffffffffffffffffffffffffffffffffffff167f91d75d691e1d5af6701879284c9ae344a16d11f8b42008df5d5774e8cdd6bf9c866040518082815260200191505060405180910390a350505050565b60008060008373ffffffffffffffffffffffffffffffffffffffff1673ffffffffffffffffffffffffffffffffffffffff168152602001908152602001600020549050919050565b60006020528060005260406000206000915090505481565b600160009054906101000a900473ffffffffffffffffffffffffffffffffffffffff1681565b600160009054906101000a900473ffffffffffffffffffffffffffffffffffffffff1673ffffffffffffffffffffffffffffffffffffffff166323b872dd3383856040518463ffffffff1660e01b8152600401808473ffffffffffffffffffffffffffffffffffffffff1673ffffffffffffffffffffffffffffffffffffffff1681526020018373ffffffffffffffffffffffffffffffffffffffff1673ffffffffffffffffffffffffffffffffffffffff1681526020018281526020019350505050602060405180830381600087803b15801561065657600080fd5b505af115801561066a573d6000803e3d6000fd5b505050506040513d602081101561068057600080fd5b810190808051906020019092919050505050816000803373ffffffffffffffffffffffffffffffffffffffff1673ffffffffffffffffffffffffffffffffffffffff16815260200190815260200160002060008282540192505081905550816000808373ffffffffffffffffffffffffffffffffffffffff1673ffffffffffffffffffffffffffffffffffffffff168152602001908152602001600020600082825403925050819055508073ffffffffffffffffffffffffffffffffffffffff163373ffffffffffffffffffffffffffffffffffffffff167fe95390b7bf1b898b21f378501e3a91b20150be1da85f65e5a7f08a4506bc1104846040518082815260200191505060405180910390a3505056fea165627a7a7230582060604a1f51dae832389f975562d66a373a016403081fdd49f4a667770006f4380029",
  "source": "pragma solidity ^0.5.0;\n\nimport '@openzeppelin/contracts/token/ERC20/IERC20.sol';\n\ncontract Fliff\n{ \n    //borrowers end up with a negative global balance\n    //loanders will have a positive global balance\n\n      mapping (address => int) public globalBalance;\n      IERC20 public stableCoin;\n\n      event DebtAdded(\n          address indexed _debtor,\n          address indexed _debtee,\n          int _amount\n      );\n\n      event DebtSettled(\n          address indexed _debtor,\n          address indexed _debtee,\n          int _amount\n      );\n\n      constructor(IERC20 _stableCoin) public\n      {\n          stableCoin = _stableCoin;\n      }\n\n      function recordDebt(int amount, address recipient) public {\n          uint currentAllowance = stableCoin.allowance(msg.sender, address(this));\n          uint updatedAllowance = currentAllowance + uint(amount);\n\n          stableCoin.approve(address(this), updatedAllowance);\n          globalBalance[msg.sender] -= amount;\n          globalBalance[recipient] += amount;\n          emit DebtAdded(msg.sender, recipient, amount);\n      }\n\n      function getGlobalBalance(address person) public view returns (int) {\n          return globalBalance[person];\n      }\n\n      function debtSettled(int amount, address recipient) public {\n          stableCoin.transferFrom(msg.sender, recipient, uint(amount));\n\n          globalBalance[msg.sender] += amount;\n          globalBalance[recipient] -= amount;\n\n          emit DebtSettled(msg.sender, recipient, amount);\n      }\n\n      \n}",
  "sourcePath": "/Users/akeem/projects/f_contracts/contracts/Fliff.sol",
  "compiler": {
    "name": "solc",
    "version": "0.5.8+commit.23d335f2.Emscripten.clang"
  },
  "schemaVersion": "3.0.15",
  "updatedAt": "2019-11-10T02:01:59.194Z",
  "devdoc": {
    "methods": {}
  },
  "userdoc": {
    "methods": {}
  }
}